{
  "contractName": "Governance",
  "abi": [
    {
      "inputs": [
        {
          "internalType": "address",
          "name": "_ERC20_token_address",
          "type": "address"
        }
      ],
      "stateMutability": "nonpayable",
      "type": "constructor"
    },
    {
      "inputs": [
        {
          "internalType": "uint256",
          "name": "",
          "type": "uint256"
        }
      ],
      "name": "answers",
      "outputs": [
        {
          "internalType": "string",
          "name": "answer",
          "type": "string"
        },
        {
          "internalType": "uint256",
          "name": "count",
          "type": "uint256"
        },
        {
          "internalType": "uint256",
          "name": "question_id",
          "type": "uint256"
        },
        {
          "internalType": "uint256",
          "name": "answer_id",
          "type": "uint256"
        }
      ],
      "stateMutability": "view",
      "type": "function",
      "constant": true
    },
    {
      "inputs": [],
      "name": "answersCount",
      "outputs": [
        {
          "internalType": "uint256",
          "name": "",
          "type": "uint256"
        }
      ],
      "stateMutability": "view",
      "type": "function",
      "constant": true
    },
    {
      "inputs": [
        {
          "internalType": "uint256",
          "name": "",
          "type": "uint256"
        }
      ],
      "name": "questions",
      "outputs": [
        {
          "internalType": "string",
          "name": "question",
          "type": "string"
        },
        {
          "internalType": "uint256",
          "name": "question_id",
          "type": "uint256"
        },
        {
          "internalType": "uint256",
          "name": "startTimestamp",
          "type": "uint256"
        },
        {
          "internalType": "uint256",
          "name": "endTimestamp",
          "type": "uint256"
        }
      ],
      "stateMutability": "view",
      "type": "function",
      "constant": true
    },
    {
      "inputs": [],
      "name": "questionsCount",
      "outputs": [
        {
          "internalType": "uint256",
          "name": "",
          "type": "uint256"
        }
      ],
      "stateMutability": "view",
      "type": "function",
      "constant": true
    },
    {
      "inputs": [],
      "name": "votersCount",
      "outputs": [
        {
          "internalType": "uint256",
          "name": "",
          "type": "uint256"
        }
      ],
      "stateMutability": "view",
      "type": "function",
      "constant": true
    },
    {
      "inputs": [
        {
          "internalType": "string",
          "name": "_question",
          "type": "string"
        },
        {
          "internalType": "string[]",
          "name": "_answers",
          "type": "string[]"
        },
        {
          "internalType": "uint256",
          "name": "_startTimestamp",
          "type": "uint256"
        },
        {
          "internalType": "uint256",
          "name": "_endTimestamp",
          "type": "uint256"
        }
      ],
      "name": "addQuestion",
      "outputs": [],
      "stateMutability": "nonpayable",
      "type": "function"
    },
    {
      "inputs": [
        {
          "internalType": "uint256",
          "name": "_question_id",
          "type": "uint256"
        }
      ],
      "name": "getQuestionById",
      "outputs": [
        {
          "components": [
            {
              "internalType": "string",
              "name": "question",
              "type": "string"
            },
            {
              "internalType": "uint256",
              "name": "question_id",
              "type": "uint256"
            },
            {
              "internalType": "uint256",
              "name": "startTimestamp",
              "type": "uint256"
            },
            {
              "internalType": "uint256",
              "name": "endTimestamp",
              "type": "uint256"
            }
          ],
          "internalType": "struct Governance.Question",
          "name": "",
          "type": "tuple"
        }
      ],
      "stateMutability": "view",
      "type": "function",
      "constant": true
    },
    {
      "inputs": [],
      "name": "getAllQuestions",
      "outputs": [
        {
          "components": [
            {
              "internalType": "string",
              "name": "question",
              "type": "string"
            },
            {
              "internalType": "uint256",
              "name": "question_id",
              "type": "uint256"
            },
            {
              "internalType": "uint256",
              "name": "startTimestamp",
              "type": "uint256"
            },
            {
              "internalType": "uint256",
              "name": "endTimestamp",
              "type": "uint256"
            }
          ],
          "internalType": "struct Governance.Question[]",
          "name": "",
          "type": "tuple[]"
        }
      ],
      "stateMutability": "view",
      "type": "function",
      "constant": true
    },
    {
      "inputs": [
        {
          "internalType": "uint256",
          "name": "_question_id",
          "type": "uint256"
        }
      ],
      "name": "getAnswersOfQuestion",
      "outputs": [
        {
          "components": [
            {
              "internalType": "string",
              "name": "answer",
              "type": "string"
            },
            {
              "internalType": "uint256",
              "name": "count",
              "type": "uint256"
            },
            {
              "internalType": "uint256",
              "name": "question_id",
              "type": "uint256"
            },
            {
              "internalType": "uint256",
              "name": "answer_id",
              "type": "uint256"
            }
          ],
          "internalType": "struct Governance.Answer[]",
          "name": "",
          "type": "tuple[]"
        }
      ],
      "stateMutability": "view",
      "type": "function",
      "constant": true
    },
    {
      "inputs": [
        {
          "internalType": "uint256",
          "name": "_questionIndex",
          "type": "uint256"
        },
        {
          "internalType": "uint256",
          "name": "_answerIndex",
          "type": "uint256"
        }
      ],
      "name": "vote",
      "outputs": [],
      "stateMutability": "nonpayable",
      "type": "function"
    },
    {
      "inputs": [],
      "name": "getQuestionsCount",
      "outputs": [
        {
          "internalType": "uint256",
          "name": "",
          "type": "uint256"
        }
      ],
      "stateMutability": "view",
      "type": "function",
      "constant": true
    },
    {
      "inputs": [
        {
          "internalType": "uint256",
          "name": "_question_id",
          "type": "uint256"
        }
      ],
      "name": "getAnswersCount",
      "outputs": [
        {
          "internalType": "uint256",
          "name": "",
          "type": "uint256"
        }
      ],
      "stateMutability": "view",
      "type": "function",
      "constant": true
    },
    {
      "inputs": [
        {
          "internalType": "uint256",
          "name": "_question_id",
          "type": "uint256"
        }
      ],
      "name": "getMostVoted",
      "outputs": [
        {
          "components": [
            {
              "internalType": "string",
              "name": "answer",
              "type": "string"
            },
            {
              "internalType": "uint256",
              "name": "count",
              "type": "uint256"
            },
            {
              "internalType": "uint256",
              "name": "question_id",
              "type": "uint256"
            },
            {
              "internalType": "uint256",
              "name": "answer_id",
              "type": "uint256"
            }
          ],
          "internalType": "struct Governance.Answer",
          "name": "",
          "type": "tuple"
        }
      ],
      "stateMutability": "view",
      "type": "function",
      "constant": true
    }
  ],
  "bytecode": "0x60806040523480156200001157600080fd5b5060405162002272380380620022728339818101604052810190620000379190620000d7565b33600560006101000a81548173ffffffffffffffffffffffffffffffffffffffff021916908373ffffffffffffffffffffffffffffffffffffffff16021790555080600660006101000a81548173ffffffffffffffffffffffffffffffffffffffff021916908373ffffffffffffffffffffffffffffffffffffffff1602179055505062000151565b600081519050620000d18162000137565b92915050565b600060208284031215620000ea57600080fd5b6000620000fa84828501620000c0565b91505092915050565b6000620001108262000117565b9050919050565b600073ffffffffffffffffffffffffffffffffffffffff82169050919050565b620001428162000103565b81146200014e57600080fd5b50565b61211180620001616000396000f3fe608060405234801561001057600080fd5b50600436106100cf5760003560e01c8063928c0a5e1161008c578063c2e112d211610066578063c2e112d21461022c578063daaf1dfc1461024a578063e25f3e021461027a578063e2ca6eb7146102aa576100cf565b8063928c0a5e146101d657806398c07938146101f2578063b384abef14610210576100cf565b806317599cc5146100d45780632af9338e1461010757806331b1b9781461012557806362855dab146101585780636d7b3c6d146101885780637c1fb3c3146101b8575b600080fd5b6100ee60048036038101906100e991906115b0565b6102c8565b6040516100fe9493929190611c00565b60405180910390f35b61010f610390565b60405161011c9190611bde565b60405180910390f35b61013f600480360381019061013a91906115b0565b61049f565b60405161014f9493929190611c00565b60405180910390f35b610172600480360381019061016d91906115b0565b610567565b60405161017f9190611bbc565b60405180910390f35b6101a2600480360381019061019d91906115b0565b61080b565b6040516101af9190611d90565b60405180910390f35b6101c06108e1565b6040516101cd9190611d90565b60405180910390f35b6101f060048036038101906101eb919061151d565b6108e7565b005b6101fa610bae565b6040516102079190611d90565b60405180910390f35b61022a60048036038101906102259190611602565b610bb4565b005b610234610f33565b6040516102419190611d90565b60405180910390f35b610264600480360381019061025f91906115b0565b610f3d565b6040516102719190611d4c565b60405180910390f35b610294600480360381019061028f91906115b0565b6111b5565b6040516102a19190611d6e565b60405180910390f35b6102b261130b565b6040516102bf9190611d90565b60405180910390f35b600181815481106102d857600080fd5b90600052602060002090600402016000915090508060000180546102fb90611fab565b80601f016020809104026020016040519081016040528092919081815260200182805461032790611fab565b80156103745780601f1061034957610100808354040283529160200191610374565b820191906000526020600020905b81548152906001019060200180831161035757829003601f168201915b5050505050908060010154908060020154908060030154905084565b60606000805480602002602001604051908101604052809291908181526020016000905b8282101561049657838290600052602060002090600402016040518060800160405290816000820180546103e790611fab565b80601f016020809104026020016040519081016040528092919081815260200182805461041390611fab565b80156104605780601f1061043557610100808354040283529160200191610460565b820191906000526020600020905b81548152906001019060200180831161044357829003601f168201915b505050505081526020016001820154815260200160028201548152602001600382015481525050815260200190600101906103b4565b50505050905090565b600081815481106104af57600080fd5b90600052602060002090600402016000915090508060000180546104d290611fab565b80601f01602080910402602001604051908101604052809291908181526020018280546104fe90611fab565b801561054b5780601f106105205761010080835404028352916020019161054b565b820191906000526020600020905b81548152906001019060200180831161052e57829003601f168201915b5050505050908060010154908060020154908060030154905084565b606060025482106105ad576040517f08c379a00000000000000000000000000000000000000000000000000000000081526004016105a490611ccc565b60405180910390fd5b600060035467ffffffffffffffff8111156105f1577f4e487b7100000000000000000000000000000000000000000000000000000000600052604160045260246000fd5b60405190808252806020026020018201604052801561062a57816020015b610617611311565b81526020019060019003908161060f5790505b5090506000805b600180549050811015610800578460018281548110610679577f4e487b7100000000000000000000000000000000000000000000000000000000600052603260045260246000fd5b90600052602060002090600402016002015414156107ed576000600182815481106106cd577f4e487b7100000000000000000000000000000000000000000000000000000000600052603260045260246000fd5b90600052602060002090600402016040518060800160405290816000820180546106f690611fab565b80601f016020809104026020016040519081016040528092919081815260200182805461072290611fab565b801561076f5780601f106107445761010080835404028352916020019161076f565b820191906000526020600020905b81548152906001019060200180831161075257829003601f168201915b5050505050815260200160018201548152602001600282015481526020016003820154815250509050808484815181106107d2577f4e487b7100000000000000000000000000000000000000000000000000000000600052603260045260246000fd5b602002602001018190525082806107e890611fdd565b935050505b80806107f890611fdd565b915050610631565b508192505050919050565b60006002548210610851576040517f08c379a000000000000000000000000000000000000000000000000000000000815260040161084890611ccc565b60405180910390fd5b6000805b6001805490508110156108d757836001828154811061089d577f4e487b7100000000000000000000000000000000000000000000000000000000600052603260045260246000fd5b90600052602060002090600402016002015414156108c45781806108c090611fdd565b9250505b80806108cf90611fdd565b915050610855565b5080915050919050565b60025481565b600560009054906101000a900473ffffffffffffffffffffffffffffffffffffffff1673ffffffffffffffffffffffffffffffffffffffff163373ffffffffffffffffffffffffffffffffffffffff1614610977576040517f08c379a000000000000000000000000000000000000000000000000000000000815260040161096e90611cec565b60405180910390fd5b610100835111156109bd576040517f08c379a00000000000000000000000000000000000000000000000000000000081526004016109b490611cac565b60405180910390fd5b8082106109ff576040517f08c379a00000000000000000000000000000000000000000000000000000000081526004016109f690611c4c565b60405180910390fd5b6000604051806080016040528086815260200160025481526020018481526020018381525090806001815401808255809150506001900390600052602060002090600402016000909190919091506000820151816000019080519060200190610a69929190611339565b50602082015181600101556040820151816002015560608201518160030155505060005b8351811015610b8f5760016040518060800160405280868481518110610adc577f4e487b7100000000000000000000000000000000000000000000000000000000600052603260045260246000fd5b6020026020010151815260200160008152602001600254815260200160035481525090806001815401808255809150506001900390600052602060002090600402016000909190919091506000820151816000019080519060200190610b43929190611339565b50602082015181600101556040820151816002015560608201518160030155505060036000815480929190610b7790611fdd565b91905055508080610b8790611fdd565b915050610a8d565b5060026000815480929190610ba390611fdd565b919050555050505050565b60045481565b6002548210610bf8576040517f08c379a0000000000000000000000000000000000000000000000000000000008152600401610bef90611ccc565b60405180910390fd5b6000808381548110610c33577f4e487b7100000000000000000000000000000000000000000000000000000000600052603260045260246000fd5b9060005260206000209060040201604051806080016040529081600082018054610c5c90611fab565b80601f0160208091040260200160405190810160405280929190818152602001828054610c8890611fab565b8015610cd55780601f10610caa57610100808354040283529160200191610cd5565b820191906000526020600020905b815481529060010190602001808311610cb857829003601f168201915b50505050508152602001600182015481526020016002820154815260200160038201548152505090504281604001511115610d45576040517f08c379a0000000000000000000000000000000000000000000000000000000008152600401610d3c90611d2c565b60405180910390fd5b4281606001511015610d8c576040517f08c379a0000000000000000000000000000000000000000000000000000000008152600401610d8390611c6c565b60405180910390fd5b6001805490508210610dd3576040517f08c379a0000000000000000000000000000000000000000000000000000000008152600401610dca90611d0c565b60405180910390fd5b6000600660009054906101000a900473ffffffffffffffffffffffffffffffffffffffff16905060008173ffffffffffffffffffffffffffffffffffffffff166370a08231336040518263ffffffff1660e01b8152600401610e359190611ba1565b60206040518083038186803b158015610e4d57600080fd5b505afa158015610e61573d6000803e3d6000fd5b505050506040513d601f19601f82011682018060405250810190610e8591906115d9565b905060008111610eca576040517f08c379a0000000000000000000000000000000000000000000000000000000008152600401610ec190611c8c565b60405180910390fd5b8060018581548110610f05577f4e487b7100000000000000000000000000000000000000000000000000000000600052603260045260246000fd5b90600052602060002090600402016001016000828254610f259190611ed7565b925050819055505050505050565b6000600254905090565b610f45611311565b6002548210610f89576040517f08c379a0000000000000000000000000000000000000000000000000000000008152600401610f8090611ccc565b60405180910390fd5b600080600190505b6001805490508110156110a9578360018281548110610fd9577f4e487b7100000000000000000000000000000000000000000000000000000000600052603260045260246000fd5b90600052602060002090600402016002015414801561108d57506001828154811061102d577f4e487b7100000000000000000000000000000000000000000000000000000000600052603260045260246000fd5b90600052602060002090600402016001015460018281548110611079577f4e487b7100000000000000000000000000000000000000000000000000000000600052603260045260246000fd5b906000526020600020906004020160010154115b15611096578091505b80806110a190611fdd565b915050610f91565b50600181815481106110e4577f4e487b7100000000000000000000000000000000000000000000000000000000600052603260045260246000fd5b906000526020600020906004020160405180608001604052908160008201805461110d90611fab565b80601f016020809104026020016040519081016040528092919081815260200182805461113990611fab565b80156111865780601f1061115b57610100808354040283529160200191611186565b820191906000526020600020905b81548152906001019060200180831161116957829003601f168201915b505050505081526020016001820154815260200160028201548152602001600382015481525050915050919050565b6111bd6113bf565b6002548210611201576040517f08c379a00000000000000000000000000000000000000000000000000000000081526004016111f890611ccc565b60405180910390fd5b6000828154811061123b577f4e487b7100000000000000000000000000000000000000000000000000000000600052603260045260246000fd5b906000526020600020906004020160405180608001604052908160008201805461126490611fab565b80601f016020809104026020016040519081016040528092919081815260200182805461129090611fab565b80156112dd5780601f106112b2576101008083540402835291602001916112dd565b820191906000526020600020905b8154815290600101906020018083116112c057829003601f168201915b5050505050815260200160018201548152602001600282015481526020016003820154815250509050919050565b60035481565b6040518060800160405280606081526020016000815260200160008152602001600081525090565b82805461134590611fab565b90600052602060002090601f01602090048101928261136757600085556113ae565b82601f1061138057805160ff19168380011785556113ae565b828001600101855582156113ae579182015b828111156113ad578251825591602001919060010190611392565b5b5090506113bb91906113e7565b5090565b6040518060800160405280606081526020016000815260200160008152602001600081525090565b5b808211156114005760008160009055506001016113e8565b5090565b600061141761141284611ddc565b611dab565b9050808382526020820190508260005b85811015611457578135850161143d88826114c9565b845260208401935060208301925050600181019050611427565b5050509392505050565b600061147461146f84611e08565b611dab565b90508281526020810184848401111561148c57600080fd5b611497848285611f69565b509392505050565b600082601f8301126114b057600080fd5b81356114c0848260208601611404565b91505092915050565b600082601f8301126114da57600080fd5b81356114ea848260208601611461565b91505092915050565b600081359050611502816120c4565b92915050565b600081519050611517816120c4565b92915050565b6000806000806080858703121561153357600080fd5b600085013567ffffffffffffffff81111561154d57600080fd5b611559878288016114c9565b945050602085013567ffffffffffffffff81111561157657600080fd5b6115828782880161149f565b9350506040611593878288016114f3565b92505060606115a4878288016114f3565b91505092959194509250565b6000602082840312156115c257600080fd5b60006115d0848285016114f3565b91505092915050565b6000602082840312156115eb57600080fd5b60006115f984828501611508565b91505092915050565b6000806040838503121561161557600080fd5b6000611623858286016114f3565b9250506020611634858286016114f3565b9150509250929050565b600061164a83836119f7565b905092915050565b600061165e8383611abd565b905092915050565b61166f81611f2d565b82525050565b600061168082611e58565b61168a8185611e93565b93508360208202850161169c85611e38565b8060005b858110156116d857848403895281516116b9858261163e565b94506116c483611e79565b925060208a019950506001810190506116a0565b50829750879550505050505092915050565b60006116f582611e63565b6116ff8185611ea4565b93508360208202850161171185611e48565b8060005b8581101561174d578484038952815161172e8582611652565b945061173983611e86565b925060208a01995050600181019050611715565b50829750879550505050505092915050565b600061176a82611e6e565b6117748185611eb5565b9350611784818560208601611f78565b61178d816120b3565b840191505092915050565b60006117a382611e6e565b6117ad8185611ec6565b93506117bd818560208601611f78565b6117c6816120b3565b840191505092915050565b60006117de602a83611ec6565b91507f53746172742074696d65206e6565647320746f206265206f6c6465722074686160008301527f6e20656e642074696d65000000000000000000000000000000000000000000006020830152604082019050919050565b6000611844601183611ec6565b91507f566f74696e672068617320656e646564210000000000000000000000000000006000830152602082019050919050565b6000611884601883611ec6565b91507f596f75206e65656420746f206861766520746f6b656e732100000000000000006000830152602082019050919050565b60006118c4601a83611ec6565b91507f546f6f206d616e7920616e737765727320286d617820323536290000000000006000830152602082019050919050565b6000611904601b83611ec6565b91507f4e6f207175657374696f6e2077697468207468617420696e64657800000000006000830152602082019050919050565b6000611944600983611ec6565b91507f4e6f74206f776e657200000000000000000000000000000000000000000000006000830152602082019050919050565b6000611984601983611ec6565b91507f4e6f20616e737765722077697468207468617420696e646578000000000000006000830152602082019050919050565b60006119c4601583611ec6565b91507f566f74696e67206861736e2774207374617274656400000000000000000000006000830152602082019050919050565b60006080830160008301518482036000860152611a14828261175f565b9150506020830151611a296020860182611b83565b506040830151611a3c6040860182611b83565b506060830151611a4f6060860182611b83565b508091505092915050565b60006080830160008301518482036000860152611a77828261175f565b9150506020830151611a8c6020860182611b83565b506040830151611a9f6040860182611b83565b506060830151611ab26060860182611b83565b508091505092915050565b60006080830160008301518482036000860152611ada828261175f565b9150506020830151611aef6020860182611b83565b506040830151611b026040860182611b83565b506060830151611b156060860182611b83565b508091505092915050565b60006080830160008301518482036000860152611b3d828261175f565b9150506020830151611b526020860182611b83565b506040830151611b656040860182611b83565b506060830151611b786060860182611b83565b508091505092915050565b611b8c81611f5f565b82525050565b611b9b81611f5f565b82525050565b6000602082019050611bb66000830184611666565b92915050565b60006020820190508181036000830152611bd68184611675565b905092915050565b60006020820190508181036000830152611bf881846116ea565b905092915050565b60006080820190508181036000830152611c1a8187611798565b9050611c296020830186611b92565b611c366040830185611b92565b611c436060830184611b92565b95945050505050565b60006020820190508181036000830152611c65816117d1565b9050919050565b60006020820190508181036000830152611c8581611837565b9050919050565b60006020820190508181036000830152611ca581611877565b9050919050565b60006020820190508181036000830152611cc5816118b7565b9050919050565b60006020820190508181036000830152611ce5816118f7565b9050919050565b60006020820190508181036000830152611d0581611937565b9050919050565b60006020820190508181036000830152611d2581611977565b9050919050565b60006020820190508181036000830152611d45816119b7565b9050919050565b60006020820190508181036000830152611d668184611a5a565b905092915050565b60006020820190508181036000830152611d888184611b20565b905092915050565b6000602082019050611da56000830184611b92565b92915050565b6000604051905081810181811067ffffffffffffffff82111715611dd257611dd1612084565b5b8060405250919050565b600067ffffffffffffffff821115611df757611df6612084565b5b602082029050602081019050919050565b600067ffffffffffffffff821115611e2357611e22612084565b5b601f19601f8301169050602081019050919050565b6000819050602082019050919050565b6000819050602082019050919050565b600081519050919050565b600081519050919050565b600081519050919050565b6000602082019050919050565b6000602082019050919050565b600082825260208201905092915050565b600082825260208201905092915050565b600082825260208201905092915050565b600082825260208201905092915050565b6000611ee282611f5f565b9150611eed83611f5f565b9250827fffffffffffffffffffffffffffffffffffffffffffffffffffffffffffffffff03821115611f2257611f21612026565b5b828201905092915050565b6000611f3882611f3f565b9050919050565b600073ffffffffffffffffffffffffffffffffffffffff82169050919050565b6000819050919050565b82818337600083830152505050565b60005b83811015611f96578082015181840152602081019050611f7b565b83811115611fa5576000848401525b50505050565b60006002820490506001821680611fc357607f821691505b60208210811415611fd757611fd6612055565b5b50919050565b6000611fe882611f5f565b91507fffffffffffffffffffffffffffffffffffffffffffffffffffffffffffffffff82141561201b5761201a612026565b5b600182019050919050565b7f4e487b7100000000000000000000000000000000000000000000000000000000600052601160045260246000fd5b7f4e487b7100000000000000000000000000000000000000000000000000000000600052602260045260246000fd5b7f4e487b7100000000000000000000000000000000000000000000000000000000600052604160045260246000fd5b6000601f19601f8301169050919050565b6120cd81611f5f565b81146120d857600080fd5b5056fea26469706673582212204054d50962d2e5cd56c8188e2b0c1a743c99b46fc0c88b90b12783a5ca0213dc64736f6c63430008000033",
  "immutableReferences": {},
  "source": "// SPDX-License-Identifier: MIT\r\n\r\npragma solidity ^0.8.0;\r\n\r\nimport \"./IERC20.sol\";\r\n\r\ncontract Governance {\r\n    struct Answer {\r\n        string answer;\r\n        uint256 count;\r\n        uint256 question_id;\r\n        uint256 answer_id;\r\n    }\r\n    struct Question {\r\n        string question;\r\n        uint256 question_id;\r\n        uint256 startTimestamp;\r\n        uint256 endTimestamp;\r\n    }\r\n\r\n    Question[] public questions;\r\n    Answer[] public answers;\r\n\r\n    uint256 public questionsCount;\r\n    uint256 public answersCount;\r\n\r\n    uint256 public votersCount;\r\n\r\n    address owner;\r\n\r\n    address ERC20_token_address;\r\n\r\n    modifier _ownerOnly() {\r\n        require(msg.sender == owner, \"Not owner\");\r\n        _;\r\n    }\r\n\r\n    constructor(address _ERC20_token_address) {\r\n        owner = msg.sender;\r\n        ERC20_token_address = _ERC20_token_address;\r\n    }\r\n\r\n    function addQuestion(\r\n        string memory _question,\r\n        string[] memory _answers,\r\n        uint256 _startTimestamp,\r\n        uint256 _endTimestamp\r\n    ) public _ownerOnly {\r\n        require(_answers.length <= 2**8, \"Too many answers (max 256)\");\r\n        require(\r\n            _startTimestamp < _endTimestamp,\r\n            \"Start time needs to be older than end time\"\r\n        );\r\n\r\n        questions.push(\r\n            Question(_question, questionsCount, _startTimestamp, _endTimestamp)\r\n        );\r\n        for (uint256 i = 0; i < _answers.length; i++) {\r\n            answers.push(Answer(_answers[i], 0, questionsCount, answersCount));\r\n            answersCount++;\r\n        }\r\n\r\n        questionsCount++;\r\n    }\r\n\r\n    function getQuestionById(uint256 _question_id)\r\n        public\r\n        view\r\n        returns (Question memory)\r\n    {\r\n        require(_question_id < questionsCount, \"No question with that index\");\r\n        return questions[_question_id];\r\n    }\r\n\r\n    function getAllQuestions() public view returns (Question[] memory) {\r\n        return questions;\r\n    }\r\n\r\n    function getAnswersOfQuestion(uint256 _question_id)\r\n        public\r\n        view\r\n        returns (Answer[] memory)\r\n    {\r\n        require(_question_id < questionsCount, \"No question with that index\");\r\n        Answer[] memory questionAnswers = new Answer[](answersCount);\r\n        uint256 j = 0;\r\n        for (uint256 i = 0; i < answers.length; i++) {\r\n            if (answers[i].question_id == _question_id) {\r\n                Answer memory answer = answers[i];\r\n                questionAnswers[j] = answer;\r\n                j++;\r\n            }\r\n        }\r\n        return questionAnswers;\r\n    }\r\n\r\n    // add test to check if user has already vote\r\n    function vote(uint256 _questionIndex, uint256 _answerIndex) public {\r\n        require(_questionIndex < questionsCount, \"No question with that index\");\r\n        Question memory question = questions[_questionIndex];\r\n        require(\r\n            question.startTimestamp <= block.timestamp,\r\n            \"Voting hasn't started\"\r\n        );\r\n        require(question.endTimestamp >= block.timestamp, \"Voting has ended!\");\r\n        require(_answerIndex < answers.length, \"No answer with that index\");\r\n        IERC20 token = IERC20(ERC20_token_address);\r\n        uint256 balance = token.balanceOf(msg.sender);\r\n        // ADD CHECK THAT USER HAVE AT LEAST 1 TOKEN\r\n        require(balance > 0, \"You need to have tokens!\");\r\n        // require(\r\n        //     voters[msg.sender].voted[_answerIndex] == false,\r\n        //     \"You already answered this question\"\r\n        // );\r\n        // ADD VOTE FOR 1 X NUM OF TOKENS\r\n        answers[_answerIndex].count += balance;\r\n        // voters[msg.sender].voted[_answerIndex] = true;\r\n    }\r\n\r\n    function getQuestionsCount() public view returns (uint256) {\r\n        return questionsCount;\r\n    }\r\n\r\n    function getAnswersCount(uint256 _question_id)\r\n        public\r\n        view\r\n        returns (uint256)\r\n    {\r\n        require(_question_id < questionsCount, \"No question with that index\");\r\n        uint256 answersLength = 0;\r\n        for (uint256 i = 0; i < answers.length; i++) {\r\n            if (answers[i].question_id == _question_id) {\r\n                answersLength++;\r\n            }\r\n        }\r\n        return answersLength;\r\n    }\r\n\r\n    function getMostVoted(uint256 _question_id)\r\n        public\r\n        view\r\n        returns (Answer memory)\r\n    {\r\n        require(_question_id < questionsCount, \"No question with that index\");\r\n        uint256 mostVotedIndex = 0;\r\n        for (uint256 i = 1; i < answers.length; i++) {\r\n            if (\r\n                answers[i].question_id == _question_id &&\r\n                answers[i].count > answers[mostVotedIndex].count\r\n            ) {\r\n                mostVotedIndex = i;\r\n            }\r\n        }\r\n        return answers[mostVotedIndex];\r\n    }\r\n}\r\n",
  "sourcePath": "C:\\Development\\Blockchain\\backend\\contracts\\Governance.sol",
  "compiler": {
    "name": "solc",
    "version": "0.8.0+commit.c7dfd78e.Emscripten.clang"
  },
  "schemaVersion": "3.4.4",
  "updatedAt": "2022-01-17T09:08:37.977Z",
  "networkType": "ethereum",
  "devdoc": {
    "kind": "dev",
    "methods": {},
    "version": 1
  },
  "userdoc": {
    "kind": "user",
    "methods": {},
    "version": 1
  }
}